{
  "_format": "hh-sol-artifact-1",
  "contractName": "MyNFT",
  "sourceName": "contracts/NFT.sol",
  "abi": [
    {
      "inputs": [],
      "stateMutability": "nonpayable",
      "type": "constructor"
    },
    {
      "anonymous": false,
      "inputs": [
        {
          "indexed": true,
          "internalType": "address",
          "name": "owner",
          "type": "address"
        },
        {
          "indexed": true,
          "internalType": "address",
          "name": "approved",
          "type": "address"
        },
        {
          "indexed": true,
          "internalType": "uint256",
          "name": "tokenId",
          "type": "uint256"
        }
      ],
      "name": "Approval",
      "type": "event"
    },
    {
      "anonymous": false,
      "inputs": [
        {
          "indexed": true,
          "internalType": "address",
          "name": "owner",
          "type": "address"
        },
        {
          "indexed": true,
          "internalType": "address",
          "name": "operator",
          "type": "address"
        },
        {
          "indexed": false,
          "internalType": "bool",
          "name": "approved",
          "type": "bool"
        }
      ],
      "name": "ApprovalForAll",
      "type": "event"
    },
    {
      "anonymous": false,
      "inputs": [
        {
          "indexed": true,
          "internalType": "address",
          "name": "previousOwner",
          "type": "address"
        },
        {
          "indexed": true,
          "internalType": "address",
          "name": "newOwner",
          "type": "address"
        }
      ],
      "name": "OwnershipTransferred",
      "type": "event"
    },
    {
      "anonymous": false,
      "inputs": [
        {
          "indexed": true,
          "internalType": "address",
          "name": "from",
          "type": "address"
        },
        {
          "indexed": true,
          "internalType": "address",
          "name": "to",
          "type": "address"
        },
        {
          "indexed": true,
          "internalType": "uint256",
          "name": "tokenId",
          "type": "uint256"
        }
      ],
      "name": "Transfer",
      "type": "event"
    },
    {
      "inputs": [
        {
          "internalType": "address",
          "name": "to",
          "type": "address"
        },
        {
          "internalType": "uint256",
          "name": "tokenId",
          "type": "uint256"
        }
      ],
      "name": "approve",
      "outputs": [],
      "stateMutability": "nonpayable",
      "type": "function"
    },
    {
      "inputs": [
        {
          "internalType": "address",
          "name": "owner",
          "type": "address"
        }
      ],
      "name": "balanceOf",
      "outputs": [
        {
          "internalType": "uint256",
          "name": "",
          "type": "uint256"
        }
      ],
      "stateMutability": "view",
      "type": "function"
    },
    {
      "inputs": [
        {
          "internalType": "uint256",
          "name": "tokenId",
          "type": "uint256"
        }
      ],
      "name": "getApproved",
      "outputs": [
        {
          "internalType": "address",
          "name": "",
          "type": "address"
        }
      ],
      "stateMutability": "view",
      "type": "function"
    },
    {
      "inputs": [
        {
          "internalType": "address",
          "name": "owner",
          "type": "address"
        },
        {
          "internalType": "address",
          "name": "operator",
          "type": "address"
        }
      ],
      "name": "isApprovedForAll",
      "outputs": [
        {
          "internalType": "bool",
          "name": "",
          "type": "bool"
        }
      ],
      "stateMutability": "view",
      "type": "function"
    },
    {
      "inputs": [
        {
          "internalType": "address",
          "name": "to",
          "type": "address"
        }
      ],
      "name": "mint",
      "outputs": [],
      "stateMutability": "nonpayable",
      "type": "function"
    },
    {
      "inputs": [],
      "name": "name",
      "outputs": [
        {
          "internalType": "string",
          "name": "",
          "type": "string"
        }
      ],
      "stateMutability": "view",
      "type": "function"
    },
    {
      "inputs": [],
      "name": "owner",
      "outputs": [
        {
          "internalType": "address",
          "name": "",
          "type": "address"
        }
      ],
      "stateMutability": "view",
      "type": "function"
    },
    {
      "inputs": [
        {
          "internalType": "uint256",
          "name": "tokenId",
          "type": "uint256"
        }
      ],
      "name": "ownerOf",
      "outputs": [
        {
          "internalType": "address",
          "name": "",
          "type": "address"
        }
      ],
      "stateMutability": "view",
      "type": "function"
    },
    {
      "inputs": [],
      "name": "renounceOwnership",
      "outputs": [],
      "stateMutability": "nonpayable",
      "type": "function"
    },
    {
      "inputs": [
        {
          "internalType": "address",
          "name": "from",
          "type": "address"
        },
        {
          "internalType": "address",
          "name": "to",
          "type": "address"
        },
        {
          "internalType": "uint256",
          "name": "tokenId",
          "type": "uint256"
        }
      ],
      "name": "safeTransferFrom",
      "outputs": [],
      "stateMutability": "nonpayable",
      "type": "function"
    },
    {
      "inputs": [
        {
          "internalType": "address",
          "name": "from",
          "type": "address"
        },
        {
          "internalType": "address",
          "name": "to",
          "type": "address"
        },
        {
          "internalType": "uint256",
          "name": "tokenId",
          "type": "uint256"
        },
        {
          "internalType": "bytes",
          "name": "data",
          "type": "bytes"
        }
      ],
      "name": "safeTransferFrom",
      "outputs": [],
      "stateMutability": "nonpayable",
      "type": "function"
    },
    {
      "inputs": [
        {
          "internalType": "address",
          "name": "operator",
          "type": "address"
        },
        {
          "internalType": "bool",
          "name": "approved",
          "type": "bool"
        }
      ],
      "name": "setApprovalForAll",
      "outputs": [],
      "stateMutability": "nonpayable",
      "type": "function"
    },
    {
      "inputs": [
        {
          "internalType": "bytes4",
          "name": "interfaceId",
          "type": "bytes4"
        }
      ],
      "name": "supportsInterface",
      "outputs": [
        {
          "internalType": "bool",
          "name": "",
          "type": "bool"
        }
      ],
      "stateMutability": "view",
      "type": "function"
    },
    {
      "inputs": [],
      "name": "symbol",
      "outputs": [
        {
          "internalType": "string",
          "name": "",
          "type": "string"
        }
      ],
      "stateMutability": "view",
      "type": "function"
    },
    {
      "inputs": [
        {
          "internalType": "uint256",
          "name": "index",
          "type": "uint256"
        }
      ],
      "name": "tokenByIndex",
      "outputs": [
        {
          "internalType": "uint256",
          "name": "",
          "type": "uint256"
        }
      ],
      "stateMutability": "view",
      "type": "function"
    },
    {
      "inputs": [
        {
          "internalType": "address",
          "name": "owner",
          "type": "address"
        },
        {
          "internalType": "uint256",
          "name": "index",
          "type": "uint256"
        }
      ],
      "name": "tokenOfOwnerByIndex",
      "outputs": [
        {
          "internalType": "uint256",
          "name": "",
          "type": "uint256"
        }
      ],
      "stateMutability": "view",
      "type": "function"
    },
    {
      "inputs": [
        {
          "internalType": "uint256",
          "name": "tokenId",
          "type": "uint256"
        }
      ],
      "name": "tokenURI",
      "outputs": [
        {
          "internalType": "string",
          "name": "",
          "type": "string"
        }
      ],
      "stateMutability": "view",
      "type": "function"
    },
    {
      "inputs": [],
      "name": "totalSupply",
      "outputs": [
        {
          "internalType": "uint256",
          "name": "",
          "type": "uint256"
        }
      ],
      "stateMutability": "view",
      "type": "function"
    },
    {
      "inputs": [
        {
          "internalType": "address",
          "name": "to",
          "type": "address"
        },
        {
          "internalType": "uint256",
          "name": "tokenId",
          "type": "uint256"
        }
      ],
      "name": "transfer",
      "outputs": [],
      "stateMutability": "nonpayable",
      "type": "function"
    },
    {
      "inputs": [
        {
          "internalType": "address",
          "name": "from",
          "type": "address"
        },
        {
          "internalType": "address",
          "name": "to",
          "type": "address"
        },
        {
          "internalType": "uint256",
          "name": "tokenId",
          "type": "uint256"
        }
      ],
      "name": "transferFrom",
      "outputs": [],
      "stateMutability": "nonpayable",
      "type": "function"
    },
    {
      "inputs": [
        {
          "internalType": "address",
          "name": "newOwner",
          "type": "address"
        }
      ],
      "name": "transferOwnership",
      "outputs": [],
      "stateMutability": "nonpayable",
      "type": "function"
    }
  ],
  "bytecode": "0x60806040523480156200001157600080fd5b506040518060400160405280600581526020017f4d794e46540000000000000000000000000000000000000000000000000000008152506040518060400160405280600481526020017f4d4e465400000000000000000000000000000000000000000000000000000000815250816000908051906020019062000096929190620001a6565b508060019080519060200190620000af929190620001a6565b505050620000d2620000c6620000d860201b60201c565b620000e060201b60201c565b620002bb565b600033905090565b6000600a60009054906101000a900473ffffffffffffffffffffffffffffffffffffffff16905081600a60006101000a81548173ffffffffffffffffffffffffffffffffffffffff021916908373ffffffffffffffffffffffffffffffffffffffff1602179055508173ffffffffffffffffffffffffffffffffffffffff168173ffffffffffffffffffffffffffffffffffffffff167f8be0079c531659141344cd1fd0a4f28419497f9722a3daafe3b4186f6b6457e060405160405180910390a35050565b828054620001b49062000285565b90600052602060002090601f016020900481019282620001d8576000855562000224565b82601f10620001f357805160ff191683800117855562000224565b8280016001018555821562000224579182015b828111156200022357825182559160200191906001019062000206565b5b50905062000233919062000237565b5090565b5b808211156200025257600081600090555060010162000238565b5090565b7f4e487b7100000000000000000000000000000000000000000000000000000000600052602260045260246000fd5b600060028204905060018216806200029e57607f821691505b60208210811415620002b557620002b462000256565b5b50919050565b6130e080620002cb6000396000f3fe608060405234801561001057600080fd5b50600436106101375760003560e01c80636a627842116100b8578063a22cb4651161007c578063a22cb4651461034e578063a9059cbb1461036a578063b88d4fde14610386578063c87b56dd146103a2578063e985e9c5146103d2578063f2fde38b1461040257610137565b80636a627842146102bc57806370a08231146102d8578063715018a6146103085780638da5cb5b1461031257806395d89b411461033057610137565b806323b872dd116100ff57806323b872dd146101f45780632f745c591461021057806342842e0e146102405780634f6ccce71461025c5780636352211e1461028c57610137565b806301ffc9a71461013c57806306fdde031461016c578063081812fc1461018a578063095ea7b3146101ba57806318160ddd146101d6575b600080fd5b61015660048036038101906101519190611fee565b61041e565b6040516101639190612036565b60405180910390f35b610174610430565b60405161018191906120ea565b60405180910390f35b6101a4600480360381019061019f9190612142565b6104c2565b6040516101b191906121b0565b60405180910390f35b6101d460048036038101906101cf91906121f7565b610508565b005b6101de610620565b6040516101eb9190612246565b60405180910390f35b61020e60048036038101906102099190612261565b61062d565b005b61022a600480360381019061022591906121f7565b61068d565b6040516102379190612246565b60405180910390f35b61025a60048036038101906102559190612261565b610732565b005b61027660048036038101906102719190612142565b610752565b6040516102839190612246565b60405180910390f35b6102a660048036038101906102a19190612142565b6107c3565b6040516102b391906121b0565b60405180910390f35b6102d660048036038101906102d191906122b4565b610875565b005b6102f260048036038101906102ed91906122b4565b6108a3565b6040516102ff9190612246565b60405180910390f35b61031061095b565b005b61031a61096f565b60405161032791906121b0565b60405180910390f35b610338610999565b60405161034591906120ea565b60405180910390f35b6103686004803603810190610363919061230d565b610a2b565b005b610384600480360381019061037f91906121f7565b610a41565b005b6103a0600480360381019061039b9190612482565b610a56565b005b6103bc60048036038101906103b79190612142565b610ab8565b6040516103c991906120ea565b60405180910390f35b6103ec60048036038101906103e79190612505565b610b20565b6040516103f99190612036565b60405180910390f35b61041c600480360381019061041791906122b4565b610bb4565b005b600061042982610c38565b9050919050565b60606000805461043f90612574565b80601f016020809104026020016040519081016040528092919081815260200182805461046b90612574565b80156104b85780601f1061048d576101008083540402835291602001916104b8565b820191906000526020600020905b81548152906001019060200180831161049b57829003601f168201915b5050505050905090565b60006104cd82610cb2565b6004600083815260200190815260200160002060009054906101000a900473ffffffffffffffffffffffffffffffffffffffff169050919050565b6000610513826107c3565b90508073ffffffffffffffffffffffffffffffffffffffff168373ffffffffffffffffffffffffffffffffffffffff161415610584576040517f08c379a000000000000000000000000000000000000000000000000000000000815260040161057b90612618565b60405180910390fd5b8073ffffffffffffffffffffffffffffffffffffffff166105a3610cfd565b73ffffffffffffffffffffffffffffffffffffffff1614806105d257506105d1816105cc610cfd565b610b20565b5b610611576040517f08c379a0000000000000000000000000000000000000000000000000000000008152600401610608906126aa565b60405180910390fd5b61061b8383610d05565b505050565b6000600880549050905090565b61063e610638610cfd565b82610dbe565b61067d576040517f08c379a00000000000000000000000000000000000000000000000000000000081526004016106749061273c565b60405180910390fd5b610688838383610e53565b505050565b6000610698836108a3565b82106106d9576040517f08c379a00000000000000000000000000000000000000000000000000000000081526004016106d0906127ce565b60405180910390fd5b600660008473ffffffffffffffffffffffffffffffffffffffff1673ffffffffffffffffffffffffffffffffffffffff168152602001908152602001600020600083815260200190815260200160002054905092915050565b61074d83838360405180602001604052806000815250610a56565b505050565b600061075c610620565b821061079d576040517f08c379a000000000000000000000000000000000000000000000000000000000815260040161079490612860565b60405180910390fd5b600882815481106107b1576107b0612880565b5b90600052602060002001549050919050565b6000806002600084815260200190815260200160002060009054906101000a900473ffffffffffffffffffffffffffffffffffffffff169050600073ffffffffffffffffffffffffffffffffffffffff168173ffffffffffffffffffffffffffffffffffffffff16141561086c576040517f08c379a0000000000000000000000000000000000000000000000000000000008152600401610863906128fb565b60405180910390fd5b80915050919050565b61087d6110ba565b6000610889600b611138565b90506108958282611146565b61089f600b611164565b5050565b60008073ffffffffffffffffffffffffffffffffffffffff168273ffffffffffffffffffffffffffffffffffffffff161415610914576040517f08c379a000000000000000000000000000000000000000000000000000000000815260040161090b9061298d565b60405180910390fd5b600360008373ffffffffffffffffffffffffffffffffffffffff1673ffffffffffffffffffffffffffffffffffffffff168152602001908152602001600020549050919050565b6109636110ba565b61096d600061117a565b565b6000600a60009054906101000a900473ffffffffffffffffffffffffffffffffffffffff16905090565b6060600180546109a890612574565b80601f01602080910402602001604051908101604052809291908181526020018280546109d490612574565b8015610a215780601f106109f657610100808354040283529160200191610a21565b820191906000526020600020905b815481529060010190602001808311610a0457829003601f168201915b5050505050905090565b610a3d610a36610cfd565b8383611240565b5050565b6000339050610a51818484610e53565b505050565b610a67610a61610cfd565b83610dbe565b610aa6576040517f08c379a0000000000000000000000000000000000000000000000000000000008152600401610a9d9061273c565b60405180910390fd5b610ab2848484846113ad565b50505050565b6060610ac382610cb2565b6000610acd611409565b90506000815111610aed5760405180602001604052806000815250610b18565b80610af784611446565b604051602001610b089291906129e9565b6040516020818303038152906040525b915050919050565b6000600560008473ffffffffffffffffffffffffffffffffffffffff1673ffffffffffffffffffffffffffffffffffffffff16815260200190815260200160002060008373ffffffffffffffffffffffffffffffffffffffff1673ffffffffffffffffffffffffffffffffffffffff16815260200190815260200160002060009054906101000a900460ff16905092915050565b610bbc6110ba565b600073ffffffffffffffffffffffffffffffffffffffff168173ffffffffffffffffffffffffffffffffffffffff161415610c2c576040517f08c379a0000000000000000000000000000000000000000000000000000000008152600401610c2390612a7f565b60405180910390fd5b610c358161117a565b50565b60007f780e9d63000000000000000000000000000000000000000000000000000000007bffffffffffffffffffffffffffffffffffffffffffffffffffffffff1916827bffffffffffffffffffffffffffffffffffffffffffffffffffffffff19161480610cab5750610caa826115a7565b5b9050919050565b610cbb81611689565b610cfa576040517f08c379a0000000000000000000000000000000000000000000000000000000008152600401610cf1906128fb565b60405180910390fd5b50565b600033905090565b816004600083815260200190815260200160002060006101000a81548173ffffffffffffffffffffffffffffffffffffffff021916908373ffffffffffffffffffffffffffffffffffffffff160217905550808273ffffffffffffffffffffffffffffffffffffffff16610d78836107c3565b73ffffffffffffffffffffffffffffffffffffffff167f8c5be1e5ebec7d5bd14f71427d1e84f3dd0314c0f7b2291e5b200ac8c7c3b92560405160405180910390a45050565b600080610dca836107c3565b90508073ffffffffffffffffffffffffffffffffffffffff168473ffffffffffffffffffffffffffffffffffffffff161480610e0c5750610e0b8185610b20565b5b80610e4a57508373ffffffffffffffffffffffffffffffffffffffff16610e32846104c2565b73ffffffffffffffffffffffffffffffffffffffff16145b91505092915050565b8273ffffffffffffffffffffffffffffffffffffffff16610e73826107c3565b73ffffffffffffffffffffffffffffffffffffffff1614610ec9576040517f08c379a0000000000000000000000000000000000000000000000000000000008152600401610ec090612b11565b60405180910390fd5b600073ffffffffffffffffffffffffffffffffffffffff168273ffffffffffffffffffffffffffffffffffffffff161415610f39576040517f08c379a0000000000000000000000000000000000000000000000000000000008152600401610f3090612ba3565b60405180910390fd5b610f448383836116f5565b610f4f600082610d05565b6001600360008573ffffffffffffffffffffffffffffffffffffffff1673ffffffffffffffffffffffffffffffffffffffff1681526020019081526020016000206000828254610f9f9190612bf2565b925050819055506001600360008473ffffffffffffffffffffffffffffffffffffffff1673ffffffffffffffffffffffffffffffffffffffff1681526020019081526020016000206000828254610ff69190612c26565b92505081905550816002600083815260200190815260200160002060006101000a81548173ffffffffffffffffffffffffffffffffffffffff021916908373ffffffffffffffffffffffffffffffffffffffff160217905550808273ffffffffffffffffffffffffffffffffffffffff168473ffffffffffffffffffffffffffffffffffffffff167fddf252ad1be2c89b69c2b068fc378daa952ba7f163c4a11628f55a4df523b3ef60405160405180910390a46110b5838383611705565b505050565b6110c2610cfd565b73ffffffffffffffffffffffffffffffffffffffff166110e061096f565b73ffffffffffffffffffffffffffffffffffffffff1614611136576040517f08c379a000000000000000000000000000000000000000000000000000000000815260040161112d90612cc8565b60405180910390fd5b565b600081600001549050919050565b61116082826040518060200160405280600081525061170a565b5050565b6001816000016000828254019250508190555050565b6000600a60009054906101000a900473ffffffffffffffffffffffffffffffffffffffff16905081600a60006101000a81548173ffffffffffffffffffffffffffffffffffffffff021916908373ffffffffffffffffffffffffffffffffffffffff1602179055508173ffffffffffffffffffffffffffffffffffffffff168173ffffffffffffffffffffffffffffffffffffffff167f8be0079c531659141344cd1fd0a4f28419497f9722a3daafe3b4186f6b6457e060405160405180910390a35050565b8173ffffffffffffffffffffffffffffffffffffffff168373ffffffffffffffffffffffffffffffffffffffff1614156112af576040517f08c379a00000000000000000000000000000000000000000000000000000000081526004016112a690612d34565b60405180910390fd5b80600560008573ffffffffffffffffffffffffffffffffffffffff1673ffffffffffffffffffffffffffffffffffffffff16815260200190815260200160002060008473ffffffffffffffffffffffffffffffffffffffff1673ffffffffffffffffffffffffffffffffffffffff16815260200190815260200160002060006101000a81548160ff0219169083151502179055508173ffffffffffffffffffffffffffffffffffffffff168373ffffffffffffffffffffffffffffffffffffffff167f17307eab39ab6107e8899845ad3d59bd9653f200f220920489ca2b5937696c31836040516113a09190612036565b60405180910390a3505050565b6113b8848484610e53565b6113c484848484611765565b611403576040517f08c379a00000000000000000000000000000000000000000000000000000000081526004016113fa90612dc6565b60405180910390fd5b50505050565b60606040518060400160405280601681526020017f68747470733a2f2f7468697349734d79546f6b656e2f00000000000000000000815250905090565b6060600082141561148e576040518060400160405280600181526020017f300000000000000000000000000000000000000000000000000000000000000081525090506115a2565b600082905060005b600082146114c05780806114a990612de6565b915050600a826114b99190612e5e565b9150611496565b60008167ffffffffffffffff8111156114dc576114db612357565b5b6040519080825280601f01601f19166020018201604052801561150e5781602001600182028036833780820191505090505b5090505b6000851461159b576001826115279190612bf2565b9150600a856115369190612e8f565b60306115429190612c26565b60f81b81838151811061155857611557612880565b5b60200101907effffffffffffffffffffffffffffffffffffffffffffffffffffffffffffff1916908160001a905350600a856115949190612e5e565b9450611512565b8093505050505b919050565b60007f80ac58cd000000000000000000000000000000000000000000000000000000007bffffffffffffffffffffffffffffffffffffffffffffffffffffffff1916827bffffffffffffffffffffffffffffffffffffffffffffffffffffffff1916148061167257507f5b5e139f000000000000000000000000000000000000000000000000000000007bffffffffffffffffffffffffffffffffffffffffffffffffffffffff1916827bffffffffffffffffffffffffffffffffffffffffffffffffffffffff1916145b806116825750611681826118fc565b5b9050919050565b60008073ffffffffffffffffffffffffffffffffffffffff166002600084815260200190815260200160002060009054906101000a900473ffffffffffffffffffffffffffffffffffffffff1673ffffffffffffffffffffffffffffffffffffffff1614159050919050565b611700838383611966565b505050565b505050565b6117148383611a7a565b6117216000848484611765565b611760576040517f08c379a000000000000000000000000000000000000000000000000000000000815260040161175790612dc6565b60405180910390fd5b505050565b60006117868473ffffffffffffffffffffffffffffffffffffffff16611c54565b156118ef578373ffffffffffffffffffffffffffffffffffffffff1663150b7a026117af610cfd565b8786866040518563ffffffff1660e01b81526004016117d19493929190612f15565b602060405180830381600087803b1580156117eb57600080fd5b505af192505050801561181c57506040513d601f19601f820116820180604052508101906118199190612f76565b60015b61189f573d806000811461184c576040519150601f19603f3d011682016040523d82523d6000602084013e611851565b606091505b50600081511415611897576040517f08c379a000000000000000000000000000000000000000000000000000000000815260040161188e90612dc6565b60405180910390fd5b805181602001fd5b63150b7a0260e01b7bffffffffffffffffffffffffffffffffffffffffffffffffffffffff1916817bffffffffffffffffffffffffffffffffffffffffffffffffffffffff1916149150506118f4565b600190505b949350505050565b60007f01ffc9a7000000000000000000000000000000000000000000000000000000007bffffffffffffffffffffffffffffffffffffffffffffffffffffffff1916827bffffffffffffffffffffffffffffffffffffffffffffffffffffffff1916149050919050565b611971838383611c77565b600073ffffffffffffffffffffffffffffffffffffffff168373ffffffffffffffffffffffffffffffffffffffff1614156119b4576119af81611c7c565b6119f3565b8173ffffffffffffffffffffffffffffffffffffffff168373ffffffffffffffffffffffffffffffffffffffff16146119f2576119f18382611cc5565b5b5b600073ffffffffffffffffffffffffffffffffffffffff168273ffffffffffffffffffffffffffffffffffffffff161415611a3657611a3181611e32565b611a75565b8273ffffffffffffffffffffffffffffffffffffffff168273ffffffffffffffffffffffffffffffffffffffff1614611a7457611a738282611f03565b5b5b505050565b600073ffffffffffffffffffffffffffffffffffffffff168273ffffffffffffffffffffffffffffffffffffffff161415611aea576040517f08c379a0000000000000000000000000000000000000000000000000000000008152600401611ae190612fef565b60405180910390fd5b611af381611689565b15611b33576040517f08c379a0000000000000000000000000000000000000000000000000000000008152600401611b2a9061305b565b60405180910390fd5b611b3f600083836116f5565b6001600360008473ffffffffffffffffffffffffffffffffffffffff1673ffffffffffffffffffffffffffffffffffffffff1681526020019081526020016000206000828254611b8f9190612c26565b92505081905550816002600083815260200190815260200160002060006101000a81548173ffffffffffffffffffffffffffffffffffffffff021916908373ffffffffffffffffffffffffffffffffffffffff160217905550808273ffffffffffffffffffffffffffffffffffffffff16600073ffffffffffffffffffffffffffffffffffffffff167fddf252ad1be2c89b69c2b068fc378daa952ba7f163c4a11628f55a4df523b3ef60405160405180910390a4611c5060008383611705565b5050565b6000808273ffffffffffffffffffffffffffffffffffffffff163b119050919050565b505050565b6008805490506009600083815260200190815260200160002081905550600881908060018154018082558091505060019003906000526020600020016000909190919091505550565b60006001611cd2846108a3565b611cdc9190612bf2565b9050600060076000848152602001908152602001600020549050818114611dc1576000600660008673ffffffffffffffffffffffffffffffffffffffff1673ffffffffffffffffffffffffffffffffffffffff168152602001908152602001600020600084815260200190815260200160002054905080600660008773ffffffffffffffffffffffffffffffffffffffff1673ffffffffffffffffffffffffffffffffffffffff168152602001908152602001600020600084815260200190815260200160002081905550816007600083815260200190815260200160002081905550505b6007600084815260200190815260200160002060009055600660008573ffffffffffffffffffffffffffffffffffffffff1673ffffffffffffffffffffffffffffffffffffffff16815260200190815260200160002060008381526020019081526020016000206000905550505050565b60006001600880549050611e469190612bf2565b9050600060096000848152602001908152602001600020549050600060088381548110611e7657611e75612880565b5b906000526020600020015490508060088381548110611e9857611e97612880565b5b906000526020600020018190555081600960008381526020019081526020016000208190555060096000858152602001908152602001600020600090556008805480611ee757611ee661307b565b5b6001900381819060005260206000200160009055905550505050565b6000611f0e836108a3565b905081600660008573ffffffffffffffffffffffffffffffffffffffff1673ffffffffffffffffffffffffffffffffffffffff168152602001908152602001600020600083815260200190815260200160002081905550806007600084815260200190815260200160002081905550505050565b6000604051905090565b600080fd5b600080fd5b60007fffffffff0000000000000000000000000000000000000000000000000000000082169050919050565b611fcb81611f96565b8114611fd657600080fd5b50565b600081359050611fe881611fc2565b92915050565b60006020828403121561200457612003611f8c565b5b600061201284828501611fd9565b91505092915050565b60008115159050919050565b6120308161201b565b82525050565b600060208201905061204b6000830184612027565b92915050565b600081519050919050565b600082825260208201905092915050565b60005b8381101561208b578082015181840152602081019050612070565b8381111561209a576000848401525b50505050565b6000601f19601f8301169050919050565b60006120bc82612051565b6120c6818561205c565b93506120d681856020860161206d565b6120df816120a0565b840191505092915050565b6000602082019050818103600083015261210481846120b1565b905092915050565b6000819050919050565b61211f8161210c565b811461212a57600080fd5b50565b60008135905061213c81612116565b92915050565b60006020828403121561215857612157611f8c565b5b60006121668482850161212d565b91505092915050565b600073ffffffffffffffffffffffffffffffffffffffff82169050919050565b600061219a8261216f565b9050919050565b6121aa8161218f565b82525050565b60006020820190506121c560008301846121a1565b92915050565b6121d48161218f565b81146121df57600080fd5b50565b6000813590506121f1816121cb565b92915050565b6000806040838503121561220e5761220d611f8c565b5b600061221c858286016121e2565b925050602061222d8582860161212d565b9150509250929050565b6122408161210c565b82525050565b600060208201905061225b6000830184612237565b92915050565b60008060006060848603121561227a57612279611f8c565b5b6000612288868287016121e2565b9350506020612299868287016121e2565b92505060406122aa8682870161212d565b9150509250925092565b6000602082840312156122ca576122c9611f8c565b5b60006122d8848285016121e2565b91505092915050565b6122ea8161201b565b81146122f557600080fd5b50565b600081359050612307816122e1565b92915050565b6000806040838503121561232457612323611f8c565b5b6000612332858286016121e2565b9250506020612343858286016122f8565b9150509250929050565b600080fd5b600080fd5b7f4e487b7100000000000000000000000000000000000000000000000000000000600052604160045260246000fd5b61238f826120a0565b810181811067ffffffffffffffff821117156123ae576123ad612357565b5b80604052505050565b60006123c1611f82565b90506123cd8282612386565b919050565b600067ffffffffffffffff8211156123ed576123ec612357565b5b6123f6826120a0565b9050602081019050919050565b82818337600083830152505050565b6000612425612420846123d2565b6123b7565b90508281526020810184848401111561244157612440612352565b5b61244c848285612403565b509392505050565b600082601f8301126124695761246861234d565b5b8135612479848260208601612412565b91505092915050565b6000806000806080858703121561249c5761249b611f8c565b5b60006124aa878288016121e2565b94505060206124bb878288016121e2565b93505060406124cc8782880161212d565b925050606085013567ffffffffffffffff8111156124ed576124ec611f91565b5b6124f987828801612454565b91505092959194509250565b6000806040838503121561251c5761251b611f8c565b5b600061252a858286016121e2565b925050602061253b858286016121e2565b9150509250929050565b7f4e487b7100000000000000000000000000000000000000000000000000000000600052602260045260246000fd5b6000600282049050600182168061258c57607f821691505b602082108114156125a05761259f612545565b5b50919050565b7f4552433732313a20617070726f76616c20746f2063757272656e74206f776e6560008201527f7200000000000000000000000000000000000000000000000000000000000000602082015250565b600061260260218361205c565b915061260d826125a6565b604082019050919050565b60006020820190508181036000830152612631816125f5565b9050919050565b7f4552433732313a20617070726f76652063616c6c6572206973206e6f7420746f60008201527f6b656e206f776e6572206e6f7220617070726f76656420666f7220616c6c0000602082015250565b6000612694603e8361205c565b915061269f82612638565b604082019050919050565b600060208201905081810360008301526126c381612687565b9050919050565b7f4552433732313a2063616c6c6572206973206e6f7420746f6b656e206f776e6560008201527f72206e6f7220617070726f766564000000000000000000000000000000000000602082015250565b6000612726602e8361205c565b9150612731826126ca565b604082019050919050565b6000602082019050818103600083015261275581612719565b9050919050565b7f455243373231456e756d657261626c653a206f776e657220696e646578206f7560008201527f74206f6620626f756e6473000000000000000000000000000000000000000000602082015250565b60006127b8602b8361205c565b91506127c38261275c565b604082019050919050565b600060208201905081810360008301526127e7816127ab565b9050919050565b7f455243373231456e756d657261626c653a20676c6f62616c20696e646578206f60008201527f7574206f6620626f756e64730000000000000000000000000000000000000000602082015250565b600061284a602c8361205c565b9150612855826127ee565b604082019050919050565b600060208201905081810360008301526128798161283d565b9050919050565b7f4e487b7100000000000000000000000000000000000000000000000000000000600052603260045260246000fd5b7f4552433732313a20696e76616c696420746f6b656e2049440000000000000000600082015250565b60006128e560188361205c565b91506128f0826128af565b602082019050919050565b60006020820190508181036000830152612914816128d8565b9050919050565b7f4552433732313a2061646472657373207a65726f206973206e6f74206120766160008201527f6c6964206f776e65720000000000000000000000000000000000000000000000602082015250565b600061297760298361205c565b91506129828261291b565b604082019050919050565b600060208201905081810360008301526129a68161296a565b9050919050565b600081905092915050565b60006129c382612051565b6129cd81856129ad565b93506129dd81856020860161206d565b80840191505092915050565b60006129f582856129b8565b9150612a0182846129b8565b91508190509392505050565b7f4f776e61626c653a206e6577206f776e657220697320746865207a65726f206160008201527f6464726573730000000000000000000000000000000000000000000000000000602082015250565b6000612a6960268361205c565b9150612a7482612a0d565b604082019050919050565b60006020820190508181036000830152612a9881612a5c565b9050919050565b7f4552433732313a207472616e736665722066726f6d20696e636f72726563742060008201527f6f776e6572000000000000000000000000000000000000000000000000000000602082015250565b6000612afb60258361205c565b9150612b0682612a9f565b604082019050919050565b60006020820190508181036000830152612b2a81612aee565b9050919050565b7f4552433732313a207472616e7366657220746f20746865207a65726f2061646460008201527f7265737300000000000000000000000000000000000000000000000000000000602082015250565b6000612b8d60248361205c565b9150612b9882612b31565b604082019050919050565b60006020820190508181036000830152612bbc81612b80565b9050919050565b7f4e487b7100000000000000000000000000000000000000000000000000000000600052601160045260246000fd5b6000612bfd8261210c565b9150612c088361210c565b925082821015612c1b57612c1a612bc3565b5b828203905092915050565b6000612c318261210c565b9150612c3c8361210c565b9250827fffffffffffffffffffffffffffffffffffffffffffffffffffffffffffffffff03821115612c7157612c70612bc3565b5b828201905092915050565b7f4f776e61626c653a2063616c6c6572206973206e6f7420746865206f776e6572600082015250565b6000612cb260208361205c565b9150612cbd82612c7c565b602082019050919050565b60006020820190508181036000830152612ce181612ca5565b9050919050565b7f4552433732313a20617070726f766520746f2063616c6c657200000000000000600082015250565b6000612d1e60198361205c565b9150612d2982612ce8565b602082019050919050565b60006020820190508181036000830152612d4d81612d11565b9050919050565b7f4552433732313a207472616e7366657220746f206e6f6e20455243373231526560008201527f63656976657220696d706c656d656e7465720000000000000000000000000000602082015250565b6000612db060328361205c565b9150612dbb82612d54565b604082019050919050565b60006020820190508181036000830152612ddf81612da3565b9050919050565b6000612df18261210c565b91507fffffffffffffffffffffffffffffffffffffffffffffffffffffffffffffffff821415612e2457612e23612bc3565b5b600182019050919050565b7f4e487b7100000000000000000000000000000000000000000000000000000000600052601260045260246000fd5b6000612e698261210c565b9150612e748361210c565b925082612e8457612e83612e2f565b5b828204905092915050565b6000612e9a8261210c565b9150612ea58361210c565b925082612eb557612eb4612e2f565b5b828206905092915050565b600081519050919050565b600082825260208201905092915050565b6000612ee782612ec0565b612ef18185612ecb565b9350612f0181856020860161206d565b612f0a816120a0565b840191505092915050565b6000608082019050612f2a60008301876121a1565b612f3760208301866121a1565b612f446040830185612237565b8181036060830152612f568184612edc565b905095945050505050565b600081519050612f7081611fc2565b92915050565b600060208284031215612f8c57612f8b611f8c565b5b6000612f9a84828501612f61565b91505092915050565b7f4552433732313a206d696e7420746f20746865207a65726f2061646472657373600082015250565b6000612fd960208361205c565b9150612fe482612fa3565b602082019050919050565b6000602082019050818103600083015261300881612fcc565b9050919050565b7f4552433732313a20746f6b656e20616c7265616479206d696e74656400000000600082015250565b6000613045601c8361205c565b91506130508261300f565b602082019050919050565b6000602082019050818103600083015261307481613038565b9050919050565b7f4e487b7100000000000000000000000000000000000000000000000000000000600052603160045260246000fdfea26469706673582212202a1d0d8d31469bf1b60201d15e5824f2ef186d9a7f41ef5f82710d897f3b0eaa64736f6c63430008090033",
  "linkReferences": {},
  "deployedLinkReferences": {}
}